{
  "transactions": [
    {
      "hash": "0x09430ad792b95afd4f6939afb681f4d356cf8a8227d592a4f05fb3e6c47bdced",
      "transactionType": "CREATE",
      "contractName": "PaymentSplitterFactory",
      "contractAddress": "0x047a20446be6367f035bacfdfc74b8dd5048338e",
      "function": null,
      "arguments": null,
      "transaction": {
        "from": "0x0a1978f4cec6afa754b6fa11b7d141e529b22741",
        "value": "0x0",
        "input": "0x60c08060405234609b57610d948181016001600160401b0381118382101760875782916111de833903905ff08015607c576001600160a01b03166080523360a05260405161113e90816100a08239608051818181610186015281816102c3015281816103440152610799015260a05181818160e501526108250152f35b6040513d5f823e3d90fd5b634e487b7160e01b5f52604160045260245ffd5b5f80fdfe6080806040526004361015610012575f80fd5b5f3560e01c90816301681a62146107fc575080630c192ec3146107245780634ce82660146104265780635a2b1ea3146102f25780635c60da1b146102ae5780637a0b30f3146101145780638da5cb5b146100d05763e709dbf514610074575f80fd5b346100cc5760403660031901126100cc5761008d610966565b6024359060018060a01b03165f525f60205260405f2080548210156100cc576020916100b891610bcd565b50546040516001600160a01b039091168152f35b5f80fd5b346100cc575f3660031901126100cc576040517f00000000000000000000000000000000000000000000000000000000000000006001600160a01b03168152602090f35b346100cc5761012236610a02565b919061013a82518251811490816102a3575b50610c61565b335f81815260208181526040918290205482519182019384529181019190915261017181606081015b03601f1981018352826109ac565b5190206e5af43d82803e903d91602b57fd5bf37f0000000000000000000000000000000000000000000000000000000000000000763d602d80600a3d3981f3363d3d373d3d3d363d7300000062ffffff8260881c16175f5260781b17602052603760095ff56001600160a01b0381169290831561029457602094849361024b5f807fba7ae4e371f92f721aded39fcc98a27bbd149723f99f39ebc7f928f7edd9ce00958782604051610239818f8b61016391830196637fbbe46f60e01b885260248401610d2c565b51925af1610245610bfa565b50610d54565b335f525f875261027860405f20604051906102658261097c565b878252868a830152836040830152610dcc565b61028960405192839233968461106f565b0390a3604051908152f35b63b06ebf3d60e01b5f5260045ffd5b905084511485610134565b346100cc575f3660031901126100cc576040517f00000000000000000000000000000000000000000000000000000000000000006001600160a01b03168152602090f35b6102fb36610a02565b919061031282518251811490816102a35750610c61565b335f81815260208181526040918290205482519182019384529181019190915261033f8160608101610163565b5190207f000000000000000000000000000000000000000000000000000000000000000034471061040f5780763d602d80600a3d3981f3363d3d373d3d3d363d7300000062ffffff6e5af43d82803e903d91602b57fd5bf39360881c16175f5260781b176020526037600934f56001600160a01b0381169290831561029457602094849361024b5f807fba7ae4e371f92f721aded39fcc98a27bbd149723f99f39ebc7f928f7edd9ce00958782604051610239818f8b61016391830196637fbbe46f60e01b885260248401610d2c565b4763cf47918160e01b5f526004523460245260445ffd5b346100cc5760203660031901126100cc576001600160a01b03610447610966565b165f525f60205260405f2080549061045e826109ce565b9161046c60405193846109ac565b808352602083019081925f5260205f205f925b8284106105b557848660405191829160208301906020845251809152604083019060408160051b85010192915f905b8282106104bd57505050500390f35b868503603f19018152835180516001600160a01b031686526020808201516060828901819052815190890181905296985094969395929460808501939101905f905b8082106105935750505060400151916040818303910152815180825260208201906020808260051b8501019401925f5b82811061055157505050505060208060019296019201920185949391926104ae565b909192939460208080600193601f19878203018952818a518051918291828552018484015e5f828201840152601f01601f19160101970195019392910161052f565b82516001600160a01b03168552602094850194909201916001909101906104ff565b6040516105c18161097c565b82546001600160a01b031681526040516001840180548083525f9182526020808320928492918301915b8082106106fe575050610600925003826109ac565b602082015260028301805490610615826109ce565b9161062360405193846109ac565b80835260208301915f5260205f205f925b82841061065b5750505050600192826020926040600395015281520192019301929061047f565b6040515f835461066a81610c29565b80845290600181169081156106db57506001146106a4575b5060019282610696859460209403826109ac565b815201920193019290610634565b5f858152602081209092505b8183106106c557505081016020016001610682565b60018160209254838688010152019201916106b0565b60ff191660208581019190915291151560051b8401909101915060019050610682565b84546001600160a01b0316835260019485019486945060209093019291909101906105eb565b346100cc5760203660031901126100cc57602061073f610966565b6001600160a01b03165f8181528083526040908190205481518085019384526020840191909152906107749082908401610163565b519020604051903060388301526f5af43d82803e903d91602b57fd5bf3ff60248301527f00000000000000000000000000000000000000000000000000000000000000006014830152733d602d80600a3d3981f3363d3d373d3d3d363d73825260588201526037600c82012060788201526055604360018060a01b0392012016604051908152f35b346100cc5760203660031901126100cc576004356001600160a01b03811691908290036100cc577f00000000000000000000000000000000000000000000000000000000000000006001600160a01b0316330361091a5750479081156108c5575f80809381935af161086c610bfa565b501561087457005b60405162461bcd60e51b8152602060048201526024808201527f5061796d656e7453706c6974746572466163746f72793a2073776565702066616044820152631a5b195960e21b6064820152608490fd5b60405162461bcd60e51b815260206004820152602760248201527f5061796d656e7453706c6974746572466163746f72793a206e6f20455448207460448201526606f2073776565760cc1b6064820152608490fd5b62461bcd60e51b815260206004820152602160248201527f5061796d656e7453706c6974746572466163746f72793a206e6f74206f776e656044820152603960f91b6064820152608490fd5b600435906001600160a01b03821682036100cc57565b6060810190811067ffffffffffffffff82111761099857604052565b634e487b7160e01b5f52604160045260245ffd5b90601f8019910116810190811067ffffffffffffffff82111761099857604052565b67ffffffffffffffff81116109985760051b60200190565b67ffffffffffffffff811161099857601f01601f191660200190565b60606003198201126100cc5760043567ffffffffffffffff81116100cc57816023820112156100cc578060040135610a39816109ce565b91610a4760405193846109ac565b8183526024602084019260051b820101908482116100cc57602401915b818310610bad575050509160243567ffffffffffffffff81116100cc57826023820112156100cc57806004013590610a9b826109ce565b91610aa960405193846109ac565b8083526024602084019160051b830101918583116100cc5760248101915b838310610b465750505050916044359067ffffffffffffffff82116100cc57806023830112156100cc578160040135610aff816109ce565b92610b0d60405194856109ac565b8184526024602085019260051b8201019283116100cc57602401905b828210610b365750505090565b8135815260209182019101610b29565b823567ffffffffffffffff81116100cc578201876043820112156100cc57602481013591610b73836109e6565b610b8060405191826109ac565b8381526044838501018a106100cc575f602085819660448397018386013783010152815201920191610ac7565b82356001600160a01b03811681036100cc57815260209283019201610a64565b8054821015610be6575f52600360205f20910201905f90565b634e487b7160e01b5f52603260045260245ffd5b3d15610c24573d90610c0b826109e6565b91610c1960405193846109ac565b82523d5f602084013e565b606090565b90600182811c92168015610c57575b6020831014610c4357565b634e487b7160e01b5f52602260045260245ffd5b91607f1691610c38565b15610c6857565b60405162461bcd60e51b815260206004820152602760248201527f5061796d656e7453706c6974746572466163746f72793a206c656e677468206d6044820152660d2e6dac2e8c6d60cb1b6064820152608490fd5b90602080835192838152019201905f5b818110610cda5750505090565b82516001600160a01b0316845260209384019390920191600101610ccd565b90602080835192838152019201905f5b818110610d165750505090565b8251845260209384019390920191600101610d09565b9091610d43610d5193604084526040840190610cbd565b916020818403910152610cf9565b90565b15610d5b57565b60405162461bcd60e51b815260206004820152602d60248201527f5061796d656e7453706c6974746572466163746f72793a20696e697469616c6960448201526c1e985d1a5bdb8819985a5b1959609a1b6064820152608490fd5b818110610dc1575050565b5f8155600101610db6565b8054600160401b81101561099857610de991600182018155610bcd565b61105c57815181546001600160a01b0319166001600160a01b03919091161781556020820151805190600183019067ffffffffffffffff831161099857600160401b8311610998576020908254848455808510611041575b5001905f5260205f205f5b8381106110245750505050600260409101910151805190600160401b8211610998578254828455808310610fad575b50602001915f5260205f20915f905b828210610e975750505050565b805180519067ffffffffffffffff821161099857610eb58654610c29565b601f8111610f72575b50602090601f8311600114610f095792826001949360209386955f92610efe575b50505f19600383901b1c191690841b1787555b01940191019092610e8a565b015190505f80610edf565b90601f19831691875f52815f20925f5b818110610f5a5750936020936001969387969383889510610f42575b505050811b018755610ef2565b01515f1960f88460031b161c191690555f8080610f35565b92936020600181928786015181550195019301610f19565b610f9d90875f5260205f20601f850160051c81019160208610610fa3575b601f0160051c0190610db6565b5f610ebe565b9091508190610f90565b835f528260205f2091820191015b818110610fc85750610e7b565b80610fd560019254610c29565b80610fe2575b5001610fbb565b601f81118314610ff757505f81555b5f610fdb565b61101390825f5283601f60205f20920160051c82019101610db6565b805f525f6020812081835555610ff1565b82516001600160a01b031681830155602090920191600101610e4c565b61105690845f5285845f209182019101610db6565b5f610e41565b634e487b7160e01b5f525f60045260245ffd5b93929061108490606086526060860190610cbd565b938085036020820152825180865260208601906020808260051b8901019501915f905b8282106110c55750505050610d519394506040818403910152610cf9565b9091929560208080600193601f198d8203018652818b518051918291828552018484015e5f828201840152601f01601f19160101980194939190910191016110a756fea264697066735822122067a404662868396dc13408e552227bd635363821906b2273a86d4fb02af86dab64736f6c634300081a00336080806040527ff0c57e16840df040f15088dc2f81fe391c3923bec73e23a9662efc9c229c6a005460ff8160401c1660bd576002600160401b03196001600160401b038216016058575b604051610cc790816100cd8239f35b6001600160401b0319166001600160401b039081177ff0c57e16840df040f15088dc2f81fe391c3923bec73e23a9662efc9c229c6a005581527fc7f505b2f371ae2175ee4913f4499e1f2633a7b5936321eed1cdaeb6115181d290602090a15f806049565b63f92ee8a960e01b5f5260045ffdfe6080604052600436101561004b575b3615610018575f80fd5b604080513381523460208201527f6ef95f06320e7a25a04a175ca677b7052bdd97131872c2192525a629f51be7709190a1005b5f3560e01c806319165587146108a45780633a98ef3914610888578063406072a91461083857806348b75044146106e75780637fbbe46f1461022a5780638b83209b146101f35780639852595c146101bb578063a3f8eace14610198578063c45ac05014610164578063ce7c2ac21461012c578063d79779b2146100f45763e33b7de30361000e57346100f0575f3660031901126100f0576020600154604051908152f35b5f80fd5b346100f05760203660031901126100f0576001600160a01b036101156109be565b165f526005602052602060405f2054604051908152f35b346100f05760203660031901126100f0576001600160a01b0361014d6109be565b165f526002602052602060405f2054604051908152f35b346100f05760403660031901126100f05760206101906101826109be565b61018a6109d4565b90610b72565b604051908152f35b346100f05760203660031901126100f05760206101906101b66109be565b610b40565b346100f05760203660031901126100f0576001600160a01b036101dc6109be565b165f526003602052602060405f2054604051908152f35b346100f05760203660031901126100f0576020610211600435610b28565b905460405160039290921b1c6001600160a01b03168152f35b60403660031901126100f05760043567ffffffffffffffff81116100f057366023820112156100f057806004013561026181610a0c565b9161026f60405193846109ea565b8183526024602084019260051b820101903682116100f057602401915b8183106106c7576024358467ffffffffffffffff82116100f057366023830112156100f0578160040135916102c083610a0c565b926102ce60405194856109ea565b8084526024602085019160051b830101913683116100f057602401905b8282106106b7575050505f80516020610c72833981519152549060ff8260401c16159167ffffffffffffffff8116801590816106af575b60011490816106a5575b15908161069c575b5061068d5767ffffffffffffffff1981166001175f80516020610c728339815191525582610661575b508051835103610601578051156105bc575f5b815181101561055e576001600160a01b0361038b8284610b00565b5116906103988186610b00565b5182156105045780156104bf57825f52600260205260405f2054610466576004549068010000000000000000821015610452576001936103fe83867f40c340f65e17194d14ddddb073d3c9f888e3cb52b5aae0c6c7706b4fbc905fac9501600455610b28565b81549060031b9083821b91888060a01b03901b1916179055805f5260026020528160405f205561042f825f54610adf565b5f55604080516001600160a01b039290921682526020820192909252a101610370565b634e487b7160e01b5f52604160045260245ffd5b60405162461bcd60e51b815260206004820152602b60248201527f5061796d656e7453706c69747465723a206163636f756e7420616c726561647960448201526a206861732073686172657360a81b6064820152608490fd5b60405162461bcd60e51b815260206004820152601d60248201527f5061796d656e7453706c69747465723a207368617265732061726520300000006044820152606490fd5b60405162461bcd60e51b815260206004820152602c60248201527f5061796d656e7453706c69747465723a206163636f756e74206973207468652060448201526b7a65726f206164647265737360a01b6064820152608490fd5b8261056557005b68ff0000000000000000195f80516020610c7283398151915254165f80516020610c72833981519152557fc7f505b2f371ae2175ee4913f4499e1f2633a7b5936321eed1cdaeb6115181d2602060405160018152a1005b60405162461bcd60e51b815260206004820152601a60248201527f5061796d656e7453706c69747465723a206e6f207061796565730000000000006044820152606490fd5b60405162461bcd60e51b815260206004820152603260248201527f5061796d656e7453706c69747465723a2070617965657320616e6420736861726044820152710cae640d8cadccee8d040dad2e6dac2e8c6d60731b6064820152608490fd5b68ffffffffffffffffff191668010000000000000001175f80516020610c72833981519152558361035d565b63f92ee8a960e01b5f5260045ffd5b90501585610334565b303b15915061032c565b849150610322565b81358152602091820191016102eb565b82356001600160a01b03811681036100f05781526020928301920161028c565b346100f05760403660031901126100f0576107006109be565b6107086109d4565b6001600160a01b0381165f9081526002602052604090205461072b901515610a24565b6107358183610b72565b610740811515610a7f565b60205f60018060a01b038516948582526005835260408220610763858254610adf565b90558582526006835260408083206001600160a01b038716808552908552818420805487019055905163a9059cbb60e01b81860190815260248201929092526044808201879052815283906107b96064826109ea565b51925af11561082d575f513d6108245750823b155b61081157604080516001600160a01b0393909316835260208301919091527f3be5b7a71e84ed12875d241991c70855ac5817d847039e17a9d895c1ceb0f18a91a2005b82635274afe760e01b5f5260045260245ffd5b600114156107ce565b6040513d5f823e3d90fd5b346100f05760403660031901126100f0576108516109be565b6108596109d4565b6001600160a01b039182165f908152600660209081526040808320949093168252928352819020549051908152f35b346100f0575f3660031901126100f05760205f54604051908152f35b346100f05760203660031901126100f0576004356001600160a01b038116908190036100f057805f5260026020526108e160405f20541515610a24565b6108ea81610b40565b6108f5811515610a7f565b61090181600154610adf565b600155815f52600360205260405f208181540190558047106109a8575f80808084865af13d156109a3573d67ffffffffffffffff81116104525760405190610953601f8201601f1916602001836109ea565b81525f60203d92013e5b15610994577fdf20fd1e76bc69d672e4814fafb2c449bba3a5369d8359adf9e05e6fde87b0569160409182519182526020820152a1005b63d6bda27560e01b5f5260045ffd5b61095d565b4763cf47918160e01b5f5260045260245260445ffd5b600435906001600160a01b03821682036100f057565b602435906001600160a01b03821682036100f057565b90601f8019910116810190811067ffffffffffffffff82111761045257604052565b67ffffffffffffffff81116104525760051b60200190565b15610a2b57565b60405162461bcd60e51b815260206004820152602660248201527f5061796d656e7453706c69747465723a206163636f756e7420686173206e6f2060448201526573686172657360d01b6064820152608490fd5b15610a8657565b60405162461bcd60e51b815260206004820152602b60248201527f5061796d656e7453706c69747465723a206163636f756e74206973206e6f742060448201526a191d59481c185e5b595b9d60aa1b6064820152608490fd5b91908201809211610aec57565b634e487b7160e01b5f52601160045260245ffd5b8051821015610b145760209160051b010190565b634e487b7160e01b5f52603260045260245ffd5b600454811015610b145760045f5260205f2001905f90565b610b6f90610b514760015490610adf565b6001600160a01b0382165f9081526003602052604090205491610c1d565b90565b6040516370a0823160e01b815230600482015291906001600160a01b0316602083602481845afa92831561082d575f93610be7575b50610bc2610b6f93825f52600560205260405f205490610adf565b905f52600660205260405f2060018060a01b0383165f5260205260405f205491610c1d565b92506020833d602011610c15575b81610c02602093836109ea565b810103126100f057915191610bc2610ba7565b3d9150610bf5565b6001600160a01b03165f908152600260205260409020548181029180159083049091141715610aec575f54908115610c5d5704908103908111610aec5790565b634e487b7160e01b5f52601260045260245ffdfef0c57e16840df040f15088dc2f81fe391c3923bec73e23a9662efc9c229c6a00a264697066735822122086139dcd1bad19f4113a66684d52a3343ce54328c8a87d258ca704b3ac79543d64736f6c634300081a0033",
        "nonce": "0x70",
        "chainId": "0x8"
      },
      "additionalContracts": [],
      "isFixedGasLimit": false
    },
    {
      "hash": "0xb88ce41189134b7fefc65062d2cf9529d1114b78ebeda860175a69320ac04f45",
      "transactionType": "CALL",
      "contractName": "PaymentSplitterFactory",
      "contractAddress": "0x047a20446be6367f035bacfdfc74b8dd5048338e",
      "function": "createPaymentSplitter(address[],string[],uint256[])",
      "arguments": [
        "[0x4BaF3334dF86FB791A6DF6Cf4210C685ab6A1766, 0x82657beC713AbA72A68D3cD903BE5930CC45dec3, 0xA0B0Bf2D837E87d2f4338bFa579bFACd1133cFBd]",
        "[Web3Afrika, SaveTheChildren, TheWaterProject]",
        "[40, 30, 30]"
      ],
      "transaction": {
        "from": "0x0a1978f4cec6afa754b6fa11b7d141e529b22741",
        "to": "0x047a20446be6367f035bacfdfc74b8dd5048338e",
        "value": "0x0",
        "input": "0x7a0b30f3000000000000000000000000000000000000000000000000000000000000006000000000000000000000000000000000000000000000000000000000000000e0000000000000000000000000000000000000000000000000000000000000022000000000000000000000000000000000000000000000000000000000000000030000000000000000000000004baf3334df86fb791a6df6cf4210c685ab6a176600000000000000000000000082657bec713aba72a68d3cd903be5930cc45dec3000000000000000000000000a0b0bf2d837e87d2f4338bfa579bfacd1133cfbd0000000000000000000000000000000000000000000000000000000000000003000000000000000000000000000000000000000000000000000000000000006000000000000000000000000000000000000000000000000000000000000000a000000000000000000000000000000000000000000000000000000000000000e0000000000000000000000000000000000000000000000000000000000000000a57656233416672696b6100000000000000000000000000000000000000000000000000000000000000000000000000000000000000000000000000000000000f536176655468654368696c6472656e0000000000000000000000000000000000000000000000000000000000000000000000000000000000000000000000000f546865576174657250726f6a656374000000000000000000000000000000000000000000000000000000000000000000000000000000000000000000000000030000000000000000000000000000000000000000000000000000000000000028000000000000000000000000000000000000000000000000000000000000001e000000000000000000000000000000000000000000000000000000000000001e",
        "nonce": "0x71",
        "chainId": "0x8"
      },
      "additionalContracts": [],
      "isFixedGasLimit": false
    },
    {
      "hash": "0xff5f2e34404371cdc3409af46cd5c29013bd47efec9fa3585a884c3b713fbd23",
      "transactionType": "CALL",
      "contractName": "PaymentSplitterFactory",
      "contractAddress": "0x047a20446be6367f035bacfdfc74b8dd5048338e",
      "function": "createPaymentSplitter(address[],string[],uint256[])",
      "arguments": [
        "[0x82657beC713AbA72A68D3cD903BE5930CC45dec3, 0xA0B0Bf2D837E87d2f4338bFa579bFACd1133cFBd, 0x4BaF3334dF86FB791A6DF6Cf4210C685ab6A1766]",
        "[SaveTheChildren, TheWaterProject, Web3Afrika]",
        "[40, 40, 20]"
      ],
      "transaction": {
        "from": "0x0a1978f4cec6afa754b6fa11b7d141e529b22741",
        "to": "0x047a20446be6367f035bacfdfc74b8dd5048338e",
        "value": "0x0",
        "input": "0x7a0b30f3000000000000000000000000000000000000000000000000000000000000006000000000000000000000000000000000000000000000000000000000000000e00000000000000000000000000000000000000000000000000000000000000220000000000000000000000000000000000000000000000000000000000000000300000000000000000000000082657bec713aba72a68d3cd903be5930cc45dec3000000000000000000000000a0b0bf2d837e87d2f4338bfa579bfacd1133cfbd0000000000000000000000004baf3334df86fb791a6df6cf4210c685ab6a17660000000000000000000000000000000000000000000000000000000000000003000000000000000000000000000000000000000000000000000000000000006000000000000000000000000000000000000000000000000000000000000000a000000000000000000000000000000000000000000000000000000000000000e0000000000000000000000000000000000000000000000000000000000000000f536176655468654368696c6472656e0000000000000000000000000000000000000000000000000000000000000000000000000000000000000000000000000f546865576174657250726f6a6563740000000000000000000000000000000000000000000000000000000000000000000000000000000000000000000000000a57656233416672696b61000000000000000000000000000000000000000000000000000000000000000000000000000000000000000000000000000000000003000000000000000000000000000000000000000000000000000000000000002800000000000000000000000000000000000000000000000000000000000000280000000000000000000000000000000000000000000000000000000000000014",
        "nonce": "0x72",
        "chainId": "0x8"
      },
      "additionalContracts": [],
      "isFixedGasLimit": false
    },
    {
      "hash": "0x553e317595b21779e2547c6b8dd127248976455dc0af939c7e9e2867c3603fcb",
      "transactionType": "CALL",
      "contractName": "PaymentSplitterFactory",
      "contractAddress": "0x047a20446be6367f035bacfdfc74b8dd5048338e",
      "function": "createPaymentSplitter(address[],string[],uint256[])",
      "arguments": [
        "[0x4BaF3334dF86FB791A6DF6Cf4210C685ab6A1766, 0x82657beC713AbA72A68D3cD903BE5930CC45dec3, 0xA0B0Bf2D837E87d2f4338bFa579bFACd1133cFBd]",
        "[Web3Afrika, SaveTheChildren, TheWaterProject]",
        "[60, 20, 20]"
      ],
      "transaction": {
        "from": "0x0a1978f4cec6afa754b6fa11b7d141e529b22741",
        "to": "0x047a20446be6367f035bacfdfc74b8dd5048338e",
        "value": "0x0",
        "input": "0x7a0b30f3000000000000000000000000000000000000000000000000000000000000006000000000000000000000000000000000000000000000000000000000000000e0000000000000000000000000000000000000000000000000000000000000022000000000000000000000000000000000000000000000000000000000000000030000000000000000000000004baf3334df86fb791a6df6cf4210c685ab6a176600000000000000000000000082657bec713aba72a68d3cd903be5930cc45dec3000000000000000000000000a0b0bf2d837e87d2f4338bfa579bfacd1133cfbd0000000000000000000000000000000000000000000000000000000000000003000000000000000000000000000000000000000000000000000000000000006000000000000000000000000000000000000000000000000000000000000000a000000000000000000000000000000000000000000000000000000000000000e0000000000000000000000000000000000000000000000000000000000000000a57656233416672696b6100000000000000000000000000000000000000000000000000000000000000000000000000000000000000000000000000000000000f536176655468654368696c6472656e0000000000000000000000000000000000000000000000000000000000000000000000000000000000000000000000000f546865576174657250726f6a65637400000000000000000000000000000000000000000000000000000000000000000000000000000000000000000000000003000000000000000000000000000000000000000000000000000000000000003c00000000000000000000000000000000000000000000000000000000000000140000000000000000000000000000000000000000000000000000000000000014",
        "nonce": "0x73",
        "chainId": "0x8"
      },
      "additionalContracts": [],
      "isFixedGasLimit": false
    }
  ],
  "receipts": [
    {
      "status": "0x1",
      "cumulativeGasUsed": "0x1b0e22",
      "logs": [
        {
          "address": "0x62985b1c724e288e5bdc4b9065c5a315b57d651e",
          "topics": [
            "0xc7f505b2f371ae2175ee4913f4499e1f2633a7b5936321eed1cdaeb6115181d2"
          ],
          "data": "0x000000000000000000000000000000000000000000000000ffffffffffffffff",
          "blockHash": "0x13259fed64fca743437f08fe58561c7cde5cabfe1cac4966c672edd15d4e8798",
          "blockNumber": "0x169faa5",
          "transactionHash": "0x09430ad792b95afd4f6939afb681f4d356cf8a8227d592a4f05fb3e6c47bdced",
          "transactionIndex": "0x0",
          "logIndex": "0x0",
          "removed": false
        }
      ],
      "logsBloom": "0x00000000000000000000000000000000000000000000000000010000000000000000000000000000000000000000000000000000000020000000000000004000000000000000000000000000000000000000000000000000000000000000000000000000000000000000000000000000000000000000000000000000000000000000000000000000000800000000000000000000000080000000000000000000000000000000000000000000000000000000000000000000000000000000000000000000000000000000000000000000000000000004000000000000000000000000000000000000000000000000000000000000000000000000000000000000",
      "type": "0x2",
      "transactionHash": "0x09430ad792b95afd4f6939afb681f4d356cf8a8227d592a4f05fb3e6c47bdced",
      "transactionIndex": "0x0",
      "blockHash": "0x13259fed64fca743437f08fe58561c7cde5cabfe1cac4966c672edd15d4e8798",
      "blockNumber": "0x169faa5",
      "gasUsed": "0x1b0e22",
      "effectiveGasPrice": "0x2",
      "blobGasUsed": "0x0",
      "from": "0x0a1978f4cec6afa754b6fa11b7d141e529b22741",
      "to": null,
      "contractAddress": "0x047a20446be6367f035bacfdfc74b8dd5048338e"
    },
    {
      "status": "0x1",
      "cumulativeGasUsed": "0x7dc35",
      "logs": [
        {
          "address": "0x81b7e10a90e3a30f5473f1e4090573d95cb4348b",
          "topics": [
            "0x40c340f65e17194d14ddddb073d3c9f888e3cb52b5aae0c6c7706b4fbc905fac"
          ],
          "data": "0x0000000000000000000000004baf3334df86fb791a6df6cf4210c685ab6a17660000000000000000000000000000000000000000000000000000000000000028",
          "blockHash": "0x67ea0caddfff76606bf3424d58b9342d68d28ef4ba3d6a56d2ae1fe74ce6d203",
          "blockNumber": "0x169faa6",
          "transactionHash": "0xb88ce41189134b7fefc65062d2cf9529d1114b78ebeda860175a69320ac04f45",
          "transactionIndex": "0x0",
          "logIndex": "0x0",
          "removed": false
        },
        {
          "address": "0x81b7e10a90e3a30f5473f1e4090573d95cb4348b",
          "topics": [
            "0x40c340f65e17194d14ddddb073d3c9f888e3cb52b5aae0c6c7706b4fbc905fac"
          ],
          "data": "0x00000000000000000000000082657bec713aba72a68d3cd903be5930cc45dec3000000000000000000000000000000000000000000000000000000000000001e",
          "blockHash": "0x67ea0caddfff76606bf3424d58b9342d68d28ef4ba3d6a56d2ae1fe74ce6d203",
          "blockNumber": "0x169faa6",
          "transactionHash": "0xb88ce41189134b7fefc65062d2cf9529d1114b78ebeda860175a69320ac04f45",
          "transactionIndex": "0x0",
          "logIndex": "0x1",
          "removed": false
        },
        {
          "address": "0x81b7e10a90e3a30f5473f1e4090573d95cb4348b",
          "topics": [
            "0x40c340f65e17194d14ddddb073d3c9f888e3cb52b5aae0c6c7706b4fbc905fac"
          ],
          "data": "0x000000000000000000000000a0b0bf2d837e87d2f4338bfa579bfacd1133cfbd000000000000000000000000000000000000000000000000000000000000001e",
          "blockHash": "0x67ea0caddfff76606bf3424d58b9342d68d28ef4ba3d6a56d2ae1fe74ce6d203",
          "blockNumber": "0x169faa6",
          "transactionHash": "0xb88ce41189134b7fefc65062d2cf9529d1114b78ebeda860175a69320ac04f45",
          "transactionIndex": "0x0",
          "logIndex": "0x2",
          "removed": false
        },
        {
          "address": "0x81b7e10a90e3a30f5473f1e4090573d95cb4348b",
          "topics": [
            "0xc7f505b2f371ae2175ee4913f4499e1f2633a7b5936321eed1cdaeb6115181d2"
          ],
          "data": "0x0000000000000000000000000000000000000000000000000000000000000001",
          "blockHash": "0x67ea0caddfff76606bf3424d58b9342d68d28ef4ba3d6a56d2ae1fe74ce6d203",
          "blockNumber": "0x169faa6",
          "transactionHash": "0xb88ce41189134b7fefc65062d2cf9529d1114b78ebeda860175a69320ac04f45",
          "transactionIndex": "0x0",
          "logIndex": "0x3",
          "removed": false
        },
        {
          "address": "0x047a20446be6367f035bacfdfc74b8dd5048338e",
          "topics": [
            "0xba7ae4e371f92f721aded39fcc98a27bbd149723f99f39ebc7f928f7edd9ce00",
            "0x0000000000000000000000000a1978f4cec6afa754b6fa11b7d141e529b22741",
            "0x00000000000000000000000081b7e10a90e3a30f5473f1e4090573d95cb4348b"
          ],
          "data": "0x000000000000000000000000000000000000000000000000000000000000006000000000000000000000000000000000000000000000000000000000000000e0000000000000000000000000000000000000000000000000000000000000022000000000000000000000000000000000000000000000000000000000000000030000000000000000000000004baf3334df86fb791a6df6cf4210c685ab6a176600000000000000000000000082657bec713aba72a68d3cd903be5930cc45dec3000000000000000000000000a0b0bf2d837e87d2f4338bfa579bfacd1133cfbd0000000000000000000000000000000000000000000000000000000000000003000000000000000000000000000000000000000000000000000000000000006000000000000000000000000000000000000000000000000000000000000000a000000000000000000000000000000000000000000000000000000000000000e0000000000000000000000000000000000000000000000000000000000000000a57656233416672696b6100000000000000000000000000000000000000000000000000000000000000000000000000000000000000000000000000000000000f536176655468654368696c6472656e0000000000000000000000000000000000000000000000000000000000000000000000000000000000000000000000000f546865576174657250726f6a656374000000000000000000000000000000000000000000000000000000000000000000000000000000000000000000000000030000000000000000000000000000000000000000000000000000000000000028000000000000000000000000000000000000000000000000000000000000001e000000000000000000000000000000000000000000000000000000000000001e",
          "blockHash": "0x67ea0caddfff76606bf3424d58b9342d68d28ef4ba3d6a56d2ae1fe74ce6d203",
          "blockNumber": "0x169faa6",
          "transactionHash": "0xb88ce41189134b7fefc65062d2cf9529d1114b78ebeda860175a69320ac04f45",
          "transactionIndex": "0x0",
          "logIndex": "0x4",
          "removed": false
        }
      ],
      "logsBloom": "0x00000000000000000000000000000002000000000000000000000000000200000800008200000000000000000000000000000000000000000000000000000000000000000000000000000000000000000200100000000000800000000000000000000000000000008100000000000000000000000000000000000000010000000004000000000000000800000000800000000000000080000000000000000000000000000000000000000000000000000000000000000000000000000000000000000000000000000000000000080000000000008004000000000000000000008000000000000000200000000040000000000000000000000000000000000000",
      "type": "0x2",
      "transactionHash": "0xb88ce41189134b7fefc65062d2cf9529d1114b78ebeda860175a69320ac04f45",
      "transactionIndex": "0x0",
      "blockHash": "0x67ea0caddfff76606bf3424d58b9342d68d28ef4ba3d6a56d2ae1fe74ce6d203",
      "blockNumber": "0x169faa6",
      "gasUsed": "0x7dc35",
      "effectiveGasPrice": "0x2",
      "blobGasUsed": "0x0",
      "from": "0x0a1978f4cec6afa754b6fa11b7d141e529b22741",
      "to": "0x047a20446be6367f035bacfdfc74b8dd5048338e",
      "contractAddress": null
    },
    {
      "status": "0x1",
      "cumulativeGasUsed": "0x79969",
      "logs": [
        {
          "address": "0x50b249a309bc9cc1e990af7eae50a5b79bf9bfe3",
          "topics": [
            "0x40c340f65e17194d14ddddb073d3c9f888e3cb52b5aae0c6c7706b4fbc905fac"
          ],
          "data": "0x00000000000000000000000082657bec713aba72a68d3cd903be5930cc45dec30000000000000000000000000000000000000000000000000000000000000028",
          "blockHash": "0xe0e71d4e94fff0a7e66e72c2962e358c6009b74527a9b89d2d6259d2bd715860",
          "blockNumber": "0x169faa7",
          "transactionHash": "0xff5f2e34404371cdc3409af46cd5c29013bd47efec9fa3585a884c3b713fbd23",
          "transactionIndex": "0x0",
          "logIndex": "0x0",
          "removed": false
        },
        {
          "address": "0x50b249a309bc9cc1e990af7eae50a5b79bf9bfe3",
          "topics": [
            "0x40c340f65e17194d14ddddb073d3c9f888e3cb52b5aae0c6c7706b4fbc905fac"
          ],
          "data": "0x000000000000000000000000a0b0bf2d837e87d2f4338bfa579bfacd1133cfbd0000000000000000000000000000000000000000000000000000000000000028",
          "blockHash": "0xe0e71d4e94fff0a7e66e72c2962e358c6009b74527a9b89d2d6259d2bd715860",
          "blockNumber": "0x169faa7",
          "transactionHash": "0xff5f2e34404371cdc3409af46cd5c29013bd47efec9fa3585a884c3b713fbd23",
          "transactionIndex": "0x0",
          "logIndex": "0x1",
          "removed": false
        },
        {
          "address": "0x50b249a309bc9cc1e990af7eae50a5b79bf9bfe3",
          "topics": [
            "0x40c340f65e17194d14ddddb073d3c9f888e3cb52b5aae0c6c7706b4fbc905fac"
          ],
          "data": "0x0000000000000000000000004baf3334df86fb791a6df6cf4210c685ab6a17660000000000000000000000000000000000000000000000000000000000000014",
          "blockHash": "0xe0e71d4e94fff0a7e66e72c2962e358c6009b74527a9b89d2d6259d2bd715860",
          "blockNumber": "0x169faa7",
          "transactionHash": "0xff5f2e34404371cdc3409af46cd5c29013bd47efec9fa3585a884c3b713fbd23",
          "transactionIndex": "0x0",
          "logIndex": "0x2",
          "removed": false
        },
        {
          "address": "0x50b249a309bc9cc1e990af7eae50a5b79bf9bfe3",
          "topics": [
            "0xc7f505b2f371ae2175ee4913f4499e1f2633a7b5936321eed1cdaeb6115181d2"
          ],
          "data": "0x0000000000000000000000000000000000000000000000000000000000000001",
          "blockHash": "0xe0e71d4e94fff0a7e66e72c2962e358c6009b74527a9b89d2d6259d2bd715860",
          "blockNumber": "0x169faa7",
          "transactionHash": "0xff5f2e34404371cdc3409af46cd5c29013bd47efec9fa3585a884c3b713fbd23",
          "transactionIndex": "0x0",
          "logIndex": "0x3",
          "removed": false
        },
        {
          "address": "0x047a20446be6367f035bacfdfc74b8dd5048338e",
          "topics": [
            "0xba7ae4e371f92f721aded39fcc98a27bbd149723f99f39ebc7f928f7edd9ce00",
            "0x0000000000000000000000000a1978f4cec6afa754b6fa11b7d141e529b22741",
            "0x00000000000000000000000050b249a309bc9cc1e990af7eae50a5b79bf9bfe3"
          ],
          "data": "0x000000000000000000000000000000000000000000000000000000000000006000000000000000000000000000000000000000000000000000000000000000e00000000000000000000000000000000000000000000000000000000000000220000000000000000000000000000000000000000000000000000000000000000300000000000000000000000082657bec713aba72a68d3cd903be5930cc45dec3000000000000000000000000a0b0bf2d837e87d2f4338bfa579bfacd1133cfbd0000000000000000000000004baf3334df86fb791a6df6cf4210c685ab6a17660000000000000000000000000000000000000000000000000000000000000003000000000000000000000000000000000000000000000000000000000000006000000000000000000000000000000000000000000000000000000000000000a000000000000000000000000000000000000000000000000000000000000000e0000000000000000000000000000000000000000000000000000000000000000f536176655468654368696c6472656e0000000000000000000000000000000000000000000000000000000000000000000000000000000000000000000000000f546865576174657250726f6a6563740000000000000000000000000000000000000000000000000000000000000000000000000000000000000000000000000a57656233416672696b61000000000000000000000000000000000000000000000000000000000000000000000000000000000000000000000000000000000003000000000000000000000000000000000000000000000000000000000000002800000000000000000000000000000000000000000000000000000000000000280000000000000000000000000000000000000000000000000000000000000014",
          "blockHash": "0xe0e71d4e94fff0a7e66e72c2962e358c6009b74527a9b89d2d6259d2bd715860",
          "blockNumber": "0x169faa7",
          "transactionHash": "0xff5f2e34404371cdc3409af46cd5c29013bd47efec9fa3585a884c3b713fbd23",
          "transactionIndex": "0x0",
          "logIndex": "0x4",
          "removed": false
        }
      ],
      "logsBloom": "0x00000880000000000000000000000000000000000000000000000000000200000800008000000000000000000000000000000000000000000000000000000000000000000000000000000000000000000200100000000000800000000000000100008000000000000100000000000000000001000000000000000000010000000004000000000000000800000000000000000000000080000000000000000000000000000000000800000000000000000000000000000000000000000000000000000000000000000000000000080000000000008004000000000000000000000000000000000000200000000000000000000000000000000000000000000000",
      "type": "0x2",
      "transactionHash": "0xff5f2e34404371cdc3409af46cd5c29013bd47efec9fa3585a884c3b713fbd23",
      "transactionIndex": "0x0",
      "blockHash": "0xe0e71d4e94fff0a7e66e72c2962e358c6009b74527a9b89d2d6259d2bd715860",
      "blockNumber": "0x169faa7",
      "gasUsed": "0x79969",
      "effectiveGasPrice": "0x2",
      "blobGasUsed": "0x0",
      "from": "0x0a1978f4cec6afa754b6fa11b7d141e529b22741",
      "to": "0x047a20446be6367f035bacfdfc74b8dd5048338e",
      "contractAddress": null
    },
    {
      "status": "0x1",
      "cumulativeGasUsed": "0x79969",
      "logs": [
        {
          "address": "0xf29ebd98a4c7a188a40b7995d59a00cf2768df24",
          "topics": [
            "0x40c340f65e17194d14ddddb073d3c9f888e3cb52b5aae0c6c7706b4fbc905fac"
          ],
          "data": "0x0000000000000000000000004baf3334df86fb791a6df6cf4210c685ab6a1766000000000000000000000000000000000000000000000000000000000000003c",
          "blockHash": "0x635837d4845935a38cf61521e69796ad23fdc4c30aa9bad4368870a40b4b878d",
          "blockNumber": "0x169faa8",
          "transactionHash": "0x553e317595b21779e2547c6b8dd127248976455dc0af939c7e9e2867c3603fcb",
          "transactionIndex": "0x0",
          "logIndex": "0x0",
          "removed": false
        },
        {
          "address": "0xf29ebd98a4c7a188a40b7995d59a00cf2768df24",
          "topics": [
            "0x40c340f65e17194d14ddddb073d3c9f888e3cb52b5aae0c6c7706b4fbc905fac"
          ],
          "data": "0x00000000000000000000000082657bec713aba72a68d3cd903be5930cc45dec30000000000000000000000000000000000000000000000000000000000000014",
          "blockHash": "0x635837d4845935a38cf61521e69796ad23fdc4c30aa9bad4368870a40b4b878d",
          "blockNumber": "0x169faa8",
          "transactionHash": "0x553e317595b21779e2547c6b8dd127248976455dc0af939c7e9e2867c3603fcb",
          "transactionIndex": "0x0",
          "logIndex": "0x1",
          "removed": false
        },
        {
          "address": "0xf29ebd98a4c7a188a40b7995d59a00cf2768df24",
          "topics": [
            "0x40c340f65e17194d14ddddb073d3c9f888e3cb52b5aae0c6c7706b4fbc905fac"
          ],
          "data": "0x000000000000000000000000a0b0bf2d837e87d2f4338bfa579bfacd1133cfbd0000000000000000000000000000000000000000000000000000000000000014",
          "blockHash": "0x635837d4845935a38cf61521e69796ad23fdc4c30aa9bad4368870a40b4b878d",
          "blockNumber": "0x169faa8",
          "transactionHash": "0x553e317595b21779e2547c6b8dd127248976455dc0af939c7e9e2867c3603fcb",
          "transactionIndex": "0x0",
          "logIndex": "0x2",
          "removed": false
        },
        {
          "address": "0xf29ebd98a4c7a188a40b7995d59a00cf2768df24",
          "topics": [
            "0xc7f505b2f371ae2175ee4913f4499e1f2633a7b5936321eed1cdaeb6115181d2"
          ],
          "data": "0x0000000000000000000000000000000000000000000000000000000000000001",
          "blockHash": "0x635837d4845935a38cf61521e69796ad23fdc4c30aa9bad4368870a40b4b878d",
          "blockNumber": "0x169faa8",
          "transactionHash": "0x553e317595b21779e2547c6b8dd127248976455dc0af939c7e9e2867c3603fcb",
          "transactionIndex": "0x0",
          "logIndex": "0x3",
          "removed": false
        },
        {
          "address": "0x047a20446be6367f035bacfdfc74b8dd5048338e",
          "topics": [
            "0xba7ae4e371f92f721aded39fcc98a27bbd149723f99f39ebc7f928f7edd9ce00",
            "0x0000000000000000000000000a1978f4cec6afa754b6fa11b7d141e529b22741",
            "0x000000000000000000000000f29ebd98a4c7a188a40b7995d59a00cf2768df24"
          ],
          "data": "0x000000000000000000000000000000000000000000000000000000000000006000000000000000000000000000000000000000000000000000000000000000e0000000000000000000000000000000000000000000000000000000000000022000000000000000000000000000000000000000000000000000000000000000030000000000000000000000004baf3334df86fb791a6df6cf4210c685ab6a176600000000000000000000000082657bec713aba72a68d3cd903be5930cc45dec3000000000000000000000000a0b0bf2d837e87d2f4338bfa579bfacd1133cfbd0000000000000000000000000000000000000000000000000000000000000003000000000000000000000000000000000000000000000000000000000000006000000000000000000000000000000000000000000000000000000000000000a000000000000000000000000000000000000000000000000000000000000000e0000000000000000000000000000000000000000000000000000000000000000a57656233416672696b6100000000000000000000000000000000000000000000000000000000000000000000000000000000000000000000000000000000000f536176655468654368696c6472656e0000000000000000000000000000000000000000000000000000000000000000000000000000000000000000000000000f546865576174657250726f6a65637400000000000000000000000000000000000000000000000000000000000000000000000000000000000000000000000003000000000000000000000000000000000000000000000000000000000000003c00000000000000000000000000000000000000000000000000000000000000140000000000000000000000000000000000000000000000000000000000000014",
          "blockHash": "0x635837d4845935a38cf61521e69796ad23fdc4c30aa9bad4368870a40b4b878d",
          "blockNumber": "0x169faa8",
          "transactionHash": "0x553e317595b21779e2547c6b8dd127248976455dc0af939c7e9e2867c3603fcb",
          "transactionIndex": "0x0",
          "logIndex": "0x4",
          "removed": false
        }
      ],
      "logsBloom": "0x00000000000000000000000000000000000000000000000000000000008200000800008000000000000000000000000000000000000000000000000000000000000000000000000000000041000000000200100000000000800000000000000000000000000000000900000000000000000000000000000000000400010000000004000000000000000800000000000000000000000080000000000000000000000000000000000000000000000000000000000000000000000000000000000000000000000000000000000000080000000000008004000000000000000000000000000000000000200000000000000000000000000000000000000000080000",
      "type": "0x2",
      "transactionHash": "0x553e317595b21779e2547c6b8dd127248976455dc0af939c7e9e2867c3603fcb",
      "transactionIndex": "0x0",
      "blockHash": "0x635837d4845935a38cf61521e69796ad23fdc4c30aa9bad4368870a40b4b878d",
      "blockNumber": "0x169faa8",
      "gasUsed": "0x79969",
      "effectiveGasPrice": "0x2",
      "blobGasUsed": "0x0",
      "from": "0x0a1978f4cec6afa754b6fa11b7d141e529b22741",
      "to": "0x047a20446be6367f035bacfdfc74b8dd5048338e",
      "contractAddress": null
    }
  ],
  "libraries": [],
  "pending": [],
  "returns": {},
  "timestamp": 1762725179381,
  "chain": 8,
  "commit": "1b07e4c"
}